:100000000C9462000C948A000C948A000C948A0070
:100010000C948A000C948A000C948A000C948A0038
:100020000C948A000C948A000C948A000C948A0028
:100030000C948A000C948A000C948A000C948A0018
:100040000C94A6050C948A000C9474050C944E052F
:100050000C948A000C948A000C948A000C948A00F8
:100060000C948A000C948A000000000024002700F1
:100070002A0000000000250028002B0000000000DE
:1000800023002600290004040404040404040202DA
:100090000202020203030303030301020408102007
:1000A0004080010204081020010204081020000012
:1000B0000008000201000003040700000000000027
:1000C0000000F00511241FBECFEFD8E0DEBFCDBF8A
:1000D00011E0A0E0B1E0EAE3F2E102C005900D9288
:1000E000A638B107D9F722E0A6E8B1E001C01D9219
:1000F000A237B207E1F710E0C2E6D0E004C02197D2
:10010000FE010E941509C136D107C9F70E943A06BF
:100110000C941B090C940000AF92BF92CF92DF9217
:10012000EF92FF920F931F93CF93DF936C017B01AC
:100130008B01040F151FEB015E01AE18BF08C0173D
:10014000D10759F06991D601ED91FC910190F081B0
:10015000E02DC6010995892B79F7C501DF91CF9173
:100160001F910F91FF90EF90DF90CF90BF90AF90D5
:100170000895FC01538D448D252F30E0842F90E0AD
:10018000821B930B541710F0CF9608950197089592
:10019000FC01918D828D981761F0A28DAE0FBF2F5B
:1001A000B11D5D968C91928D9F5F9F73928F90E0B1
:1001B00008958FEF9FEF0895FC01918D828D981720
:1001C00031F0828DE80FF11D858D90E008958FEF5D
:1001D0009FEF0895FC01918D228D892F90E0805C26
:1001E0009F4F821B91098F73992708958DEB91E0A2
:1001F0000E94EA0021E0892B09F420E0822F089573
:1002000080E090E0892B29F00E94F60081110C9487
:1002100000000895FC01A48DA80FB92FB11DA35AA9
:10022000BF4F2C91848D90E001968F739927848F16
:10023000A689B7892C93A089B1898C918370806439
:100240008C93938D848D981306C00288F389E02DDA
:1002500080818F7D80830895EF92FF920F931F938B
:10026000CF93DF93EC0181E0888F9B8D8C8D981369
:100270001AC0E889F989808185FF15C09FB7F89475
:10028000EE89FF896083E889F989808183708064C1
:1002900080839FBF81E090E0DF91CF911F910F910C
:1002A000FF90EF900895F62E0B8D10E00F5F1F4F1B
:1002B0000F731127E02E8C8D8E110CC00FB607FC2A
:1002C000FACFE889F989808185FFF5CFCE010E94B8
:1002D0000A01F1CFEB8DEC0FFD2FF11DE35AFF4F1B
:1002E000F0829FB7F8940B8FEA89FB898081806246
:1002F000CFCFCF93DF93EC01888D8823B9F0AA8903
:10030000BB89E889F9898C9185FD03C0808186FDD0
:100310000DC00FB607FCF7CF8C9185FFF2CF80811F
:1003200085FFEDCFCE010E940A01E9CFDF91CF9189
:100330000895833081F028F4813099F08230A9F05B
:1003400008958730A9F08830C9F08430B1F48091E5
:1003500080008F7D03C0809180008F778093800024
:10036000089584B58F7784BD089584B58F7DFBCFC4
:100370008091B0008F778093B00008958091B00095
:100380008F7DF9CF1F93CF93DF93282F30E0F901B2
:10039000E255FF4F8491F901E656FF4FD491F901E0
:1003A000EA57FF4FC491CC23A9F0162F81110E9468
:1003B0009901EC2FF0E0EE0FFF1FEE58FF4FA591D3
:1003C000B4918FB7F894EC91111108C0D095DE2349
:1003D000DC938FBFDF91CF911F910895DE2BF8CF73
:1003E000CF93DF9390E0FC01E656FF4F24918A57AC
:1003F0009F4FFC0184918823D1F090E0880F991FD2
:10040000FC01E859FF4FA591B491FC01EE58FF4F54
:10041000C591D49161110EC09FB7F8948C91E22FD1
:10042000E0958E238C932881E223E8839FBFDF91A0
:10043000CF9108958FB7F894EC91E22BEC938FBF96
:10044000F6CF3FB7F89480918D0190918E01A091E5
:100450008F01B091900126B5A89B05C02F3F19F0E0
:100460000196A11DB11D3FBFBA2FA92F982F882734
:10047000BC01CD01620F711D811D911D42E0660F0F
:10048000771F881F991F4A95D1F708958F929F92E1
:10049000AF92BF92CF92DF92EF92FF924B015C013D
:1004A0000E9421026B017C010E9421026C197D09CE
:1004B0008E099F09683E734081059105A8F321E0EC
:1004C000821A9108A108B10888EEC80E83E0D81EF0
:1004D000E11CF11C81149104A104B10429F7FF90DF
:1004E000EF90DF90CF90BF90AF909F908F90089546
:1004F000089590E080E00895CF93DF93EC0160E0F1
:100500008E810E94C20161E08E810E94C20160E082
:100510008E810E94C2018BE891E00197F1F7DF9193
:10052000CF910895CF92DF92EF92FF920F931F9396
:10053000CF93DF936C017C0187E0E80EF11CD0E0E3
:10054000C0E0062F10E0B8010C2E02C0759567952B
:100550000A94E2F76170F70181917F010E94C20164
:100560002196C430D10579F7C601DF91CF911F9153
:100570000F91FF90EF90DF90CF900C947C02CF9280
:10058000DF92EF92FF920F931F93CF93DF93EC01D3
:10059000F62E642F8C810E94C2018D818F3F19F04D
:1005A00060E00E94C2010F2D10E08F8584FF25C0FE
:1005B0006E0187E0C80ED11CF12CE12CB8010E2C85
:1005C00002C0759567950A94E2F76170F601819112
:1005D0006F010E94C201FFEFEF1AFF0A88E0E816E0
:1005E000F10461F7CE01DF91CF911F910F91FF9040
:1005F000EF90DF90CF900C947C02B80184E0759569
:1006000067958A95E1F7CE010E9492026F2DCE0187
:10061000DF91CF911F910F91FF90EF90DF90CF90DE
:100620000C94920240E0682F8AE592E00C94BF029D
:1006300081E00E9412038BE39FE10197F1F7089597
:10064000CF93DF93823029F4909169029860909360
:10065000690280936D0210926E0280E480936F02B3
:1006600080E18093700280E58093710261E0809167
:100670005E020E94F00180915F028F3F19F061E0FD
:100680000E94F00161E0809160020E94F001CAE5E1
:10069000D2E09E012A5532408091690284FD0BC050
:1006A00084E090E021962817390744F461E08E81B8
:1006B0000E94F001EECF88E090E0F4CF8BE39DE064
:1006C0000197F1F760E080915E020E94C20160E054
:1006D000809160020E94C20180915F028F3F19F0F9
:1006E00060E00E94C2018091690284FD34C063E031
:1006F0008AE592E00E949202CBE4D6E4CE01019713
:10070000F1F763E08AE592E00E9492022197F1F707
:1007100063E08AE592E00E94920283E592E001970D
:10072000F1F762E08AE592E00E949202809169020C
:1007300080620E94120384E080936A028CE00E942F
:1007400012030E94180382E080936B0286E0DF911F
:10075000CF910C94120380620E9412038BE496E402
:100760000197F1F78091690280620E94120383E58C
:1007700092E00197F1F78091690280620E94120372
:10078000D5CF90916D02691710F06FEF690FE62FCA
:10079000F0E0E65AFD4F9489890F80680C941203AB
:1007A00041E00E94BF0281E090E00895FB010190CA
:1007B0000020E9F73197AF01461B570BDC01ED91A3
:1007C000FC910280F381E02D09944F925F926F9229
:1007D0007F92AF92BF92CF92DF92EF92FF920F93F0
:1007E0001F93CF93DF93CDB7DEB7A1970FB6F894E1
:1007F000DEBF0FBECDBF5C016A017B01F7FE47C0C3
:10080000DC01ED91FC910190F081E02D6DE2099504
:100810008C0122273327A9012C193D094E095F09B4
:1008200019A2FE01B1967F019AE0492E512C612C4C
:10083000712CCA01B901A30192010E94BC08605D3C
:10084000D7016E937D01211531054105510589F7C9
:1008500090E080E0109721F0BD01C5010E94D60311
:10086000800F911FA1960FB6F894DEBF0FBECDBFCB
:10087000DF91CF911F910F91FF90EF90DF90CF907C
:10088000BF90AF907F906F905F904F900895AB01B5
:10089000960119A28E010F5D1F4F8AE0C82ED12C40
:1008A000E12CF12CCA01B901A70196010E94BC08F4
:1008B000605DF80162938F012115310541055105F5
:1008C00089F790E080E0309769F2BF01C5010E948E
:1008D000D603C8CF3F924F925F926F927F928F92D2
:1008E0009F92AF92BF92CF92DF92EF92FF920F93BF
:1008F0001F93CF93DF935C0110E000E06BEC662E5A
:1009000067E0762E33243A9441E9E42E41E0F42E58
:1009100056EA852E51E0952EF70181917F01082E30
:10092000000C990B0197D0E0C0E08830910528F4C5
:100930008C5F9E4FFC01C081D0E0F40181914F019A
:10094000082E000C990B01978830910508F05EC0C5
:100950008C5F9E4FFC01808190E0CC24CA94D12C06
:10096000C81AD90A38E0432E512CBE01617077278E
:100970008FE00E94C201B6016170772781E10E9479
:10098000C20161E080E10E94C201D595C795D5946E
:10099000C79460E080E10E94C201F1E04F1A510863
:1009A00021F761E08EE00E94C20160E08EE00E94CB
:1009B000C2018DEB91E00E94EA0018161906ACF511
:1009C0008DEB91E00E94C80090938701809386018F
:1009D000AC01990F660B770B8DEB91E00E94E5035C
:1009E0006AE271E08DEB91E00E94D603809186016E
:1009F000909187018033910561F41092BB01809141
:100A0000BC018F3F79F03092BC010FC090E080E0D4
:100A1000A4CF8133910551F51092BB018091BC01A7
:100A2000813089F381E08093BC01C3010197F1F724
:100A300086EA91E08E159F0509F06ECF0F5F1F4F7C
:100A4000A016B10609F060CFDF91CF911F910F91F1
:100A5000FF90EF90DF90CF90BF90AF909F908F90DE
:100A60007F906F905F904F903F90089582339105F3
:100A700049F41092BC018091BB018F3F59F0309234
:100A8000BB01D3CFC39789F61092BC018091BB0103
:100A90008130A9F381E08093BB01C7CF1F920F92F1
:100AA0000FB60F9211242F933F934F935F936F9341
:100AB0007F938F939F93AF93BF93EF93FF938DEBB0
:100AC00091E00E940A01FF91EF91BF91AF919F9138
:100AD0008F917F916F915F914F913F912F910F90E7
:100AE0000FBE0F901F9018951F920F920FB60F9286
:100AF00011242F938F939F93EF93FF93E091CD0158
:100B0000F091CE018081E091D301F091D40182FD7A
:100B10001BC090818091D6018F5F8F732091D70188
:100B2000821741F0E091D601F0E0E354FE4F958F3B
:100B30008093D601FF91EF919F918F912F910F900C
:100B40000FBE0F901F9018958081F4CF1F920F92C7
:100B50000FB60F9211242F933F938F939F93AF93D0
:100B6000BF938091890190918A01A0918B01B091EE
:100B70008C013091880123E0230F2D3758F5019621
:100B8000A11DB11D209388018093890190938A0152
:100B9000A0938B01B0938C0180918D0190918E0177
:100BA000A0918F01B09190010196A11DB11D80937C
:100BB0008D0190938E01A0938F01B0939001BF910E
:100BC000AF919F918F913F912F910F900FBE0F90FA
:100BD0001F90189526E8230F0296A11DB11DD2CFB4
:100BE000EDEBF1E01382128288EE93E0A0E0B0E03A
:100BF00084839583A683B78380E191E0918380838A
:100C000085EC90E09587848784EC90E097878687D1
:100C100080EC90E0918B808B81EC90E0938B828BC9
:100C200082EC90E0958B848B86EC90E0978B868BA2
:100C3000118E128E138E148EEAE5F2E01382128268
:100C400082E291E0918380838DE084838FEF8583BE
:100C50008CE086838BE087838AE0808789E08187C8
:100C600088E082871386148615861686178681E0AB
:100C70000C942003789484B5826084BD84B581602F
:100C800084BD85B5826085BD85B5816085BD809157
:100C90006E00816080936E001092810080918100CF
:100CA00082608093810080918100816080938100C7
:100CB000809180008160809380008091B100846089
:100CC0008093B1008091B00081608093B0008091EA
:100CD0007A00846080937A0080917A0082608093A9
:100CE0007A0080917A00816080937A0080917A0006
:100CF000806880937A001092C10082E00E942003F5
:100D000061E08FE00E94F00161E080E10E94F0016B
:100D100061E08EE00E94F00161E081E10E94F0015B
:100D200060E083E00E94F00161E083E00E94C20184
:100D300060E080E00E94C1036DE271E08AE592E02C
:100D40000E94D60361E080E00E94C10361E471E08B
:100D50008AE592E00E94D60360ED77E080E090E0C3
:100D60000E94460260E080E00E94C10362E571E0FB
:100D70008AE592E00E94D60361E080E00E94C10310
:100D800063E671E08AE592E00E94D60360ED77E0C9
:100D900080E090E00E944602E091CD01F091CE010A
:100DA00082E08083E091C901F091CA011082E09154
:100DB000CB01F091CC018FEC80831092D501E091B2
:100DC000D101F091D20186E08083E091CF01F091D2
:100DD000D001808180618083E091CF01F091D001CA
:100DE000808188608083E091CF01F091D001808183
:100DF00080688083E091CF01F091D00180818F7D68
:100E000080831092BC0181E08093BB010E94180393
:100E100060E080E00E94C10364E771E08AE592E04F
:100E20000E94D60340E050E0BA018AE592E00E94B9
:100E3000E503D0E0C0E034E6632E45E0E42EF12C7B
:100E40007724739452E0352E61EB462E60E0562EE7
:100E500079E8872E70E0972E90E080E00E947F086E
:100E6000E9EAF1E0A4E9B1E061926D9281E0EB3B47
:100E7000F807D1F70E947A08B7010E94ED088E5F4B
:100E80008093A6010E947A08B7010E94ED088E5F48
:100E9000809391017092A701709292013092A80103
:100EA000709293015E01DD0FCC08DD081092BC0149
:100EB0007092BB0181E090E00E946A0460E087E0EC
:100EC0000E94C103B601A5018AE592E00E94E503F4
:100ED000F2018491EDE9F0E0C491F401D491DD23B5
:100EE00071F081110E949901ED2FF0E0EE0FFF1FCC
:100EF000E458FF4FA591B4918C91C823B9F6D0E086
:100F0000C0E002E010E080E590E00E946A04809179
:100F1000A701893028F480919201893008F49AC0A1
:100F20007092A7017092920161E080E00E94C1037B
:100F30006CE771E08AE592E00E94D60368E873E10D
:100F400080E090E00E9446020E94180360E080E08A
:100F50000E94C10364E771E08AE592E00E94D60333
:100F600040E050E0BA018AE592E00E94E503D0E05B
:100F7000C0E0CC24C394D12C2091A601022E000CF9
:100F8000330B4091A7018091BB01082E000C990BF7
:100F9000840F911D47FD9A952817390799F52091DF
:100FA0009101022E000C330B409192018091BC0103
:100FB000082E000C990B840F911D47FD9A95281758
:100FC000390701F50F5F1F4F259660E087E00E940B
:100FD000C103AE010D2E000C660B770B8AE592E083
:100FE0000E94E5030E947A08B7010E94ED088E5F17
:100FF0008093A6010E947A08B7010E94ED088E5FD7
:1010000080939101980129553E4FF801E057FE4F1A
:1010100080818183C9010297DC018C91D9018E9373
:101020009D013197B1E0E139FB0791F78091930180
:101030009091BC01890F809392018091A8019091B9
:10104000BB01890F8093A701E2E0CE16D10409F01D
:1010500003CF59CF82E0C82ED12C8ECF8F929F9292
:10106000AF92BF92CF92DF92EF92FF92CF93DF9336
:10107000EC01688179818A819B8161157105810507
:10108000910521F464E279ED8BE597E02DE133EFF2
:1010900041E050E00E948A0849015A019B01AC01DD
:1010A000A7EAB1E40E94A9086B017C01ACEEB4EFA1
:1010B000A50194010E94B708DC01CB018C0D9D1D98
:1010C000AE1DBF1DB7FF03C00197A109B0488883BB
:1010D0009983AA83BB839F77DF91CF91FF90EF9095
:1010E000DF90CF90BF90AF909F908F9008950E9417
:1010F0002E08089580E091E00E942E080895B0E047
:10110000A0E08093000190930101A0930201B093AD
:1011100003010895052E97FB1EF400940E94A10878
:1011200057FD07D00E94BC0807FC03D04EF40C9476
:10113000A10850954095309521953F4F4F4F5F4FF7
:10114000089590958095709561957F4F8F4F9F4F33
:1011500008950E94DE08A59F900DB49F900DA49F56
:10116000800D911D11240895B7FF0C94A9080E94C9
:10117000A908821B930B0895A1E21A2EAA1BBB1B80
:10118000FD010DC0AA1FBB1FEE1FFF1FA217B30753
:10119000E407F50720F0A21BB30BE40BF50B661F69
:1011A000771F881F991F1A9469F76095709580952D
:1011B00090959B01AC01BD01CF010895A29FB001A4
:1011C000B39FC001A39F700D811D1124911DB29F7B
:1011D000700D811D1124911D089597FB072E16F4A3
:1011E000009407D077FD09D00E94010907FC05D0C3
:1011F0003EF4909581959F4F0895709561957F4F2E
:101200000895AA1BBB1B51E107C0AA1FBB1FA6174D
:10121000B70710F0A61BB70B881F991F5A95A9F79F
:1012200080959095BC01CD010895EE0FFF1F0590AC
:0A123000F491E02D0994F894FFCF2B
:10123A0001000000010204081020408000000000A4
:10124A002C018C00B9007901EA00C800DC0000001A
:10125A000000D0038C00790278020D0A0057656CF1
:10126A00636F6D77206563655F736F636965747912
:10127A00002020536E616B652067616D6520202018
:10128A002000202020507265737320537461727499
:10129A002020002020202020546F20506C617920CB
:1012AA002020200053636F72653A200047616D6504
:0612BA00204F7665720072
:00000001FF
